{
  "contractName": "Adoption",
  "abi": [
    {
      "inputs": [],
      "payable": false,
      "stateMutability": "nonpayable",
      "type": "constructor"
    },
    {
      "anonymous": false,
      "inputs": [
        {
          "indexed": false,
          "internalType": "string",
          "name": "msg",
          "type": "string"
        },
        {
          "indexed": false,
          "internalType": "address",
          "name": "sender",
          "type": "address"
        },
        {
          "indexed": false,
          "internalType": "string",
          "name": "nickname",
          "type": "string"
        },
        {
          "indexed": false,
          "internalType": "uint256",
          "name": "pokemon_id",
          "type": "uint256"
        }
      ],
      "name": "log_creat_pokemon_master",
      "type": "event"
    },
    {
      "anonymous": false,
      "inputs": [
        {
          "indexed": false,
          "internalType": "string",
          "name": "msg",
          "type": "string"
        },
        {
          "indexed": false,
          "internalType": "address",
          "name": "player",
          "type": "address"
        },
        {
          "indexed": false,
          "internalType": "uint256",
          "name": "pokemon_id",
          "type": "uint256"
        }
      ],
      "name": "log_delete_pokemon",
      "type": "event"
    },
    {
      "anonymous": false,
      "inputs": [
        {
          "indexed": false,
          "internalType": "string",
          "name": "msg",
          "type": "string"
        },
        {
          "indexed": false,
          "internalType": "uint256",
          "name": "pokemon_id",
          "type": "uint256"
        }
      ],
      "name": "log_get_pokemon",
      "type": "event"
    },
    {
      "constant": true,
      "inputs": [],
      "name": "echo_players",
      "outputs": [
        {
          "internalType": "uint256",
          "name": "",
          "type": "uint256"
        }
      ],
      "payable": false,
      "stateMutability": "view",
      "type": "function"
    },
    {
      "constant": true,
      "inputs": [],
      "name": "echo_pokemon_owner",
      "outputs": [
        {
          "internalType": "address[16]",
          "name": "",
          "type": "address[16]"
        }
      ],
      "payable": false,
      "stateMutability": "view",
      "type": "function"
    },
    {
      "constant": false,
      "inputs": [
        {
          "internalType": "string",
          "name": "_name",
          "type": "string"
        },
        {
          "internalType": "uint256",
          "name": "_id",
          "type": "uint256"
        }
      ],
      "name": "creat_pokemon_master",
      "outputs": [],
      "payable": false,
      "stateMutability": "nonpayable",
      "type": "function"
    },
    {
      "constant": false,
      "inputs": [
        {
          "internalType": "uint256",
          "name": "_id",
          "type": "uint256"
        }
      ],
      "name": "get_pokemon",
      "outputs": [],
      "payable": false,
      "stateMutability": "nonpayable",
      "type": "function"
    },
    {
      "constant": false,
      "inputs": [
        {
          "internalType": "address",
          "name": "_player",
          "type": "address"
        },
        {
          "internalType": "uint256",
          "name": "_id",
          "type": "uint256"
        }
      ],
      "name": "delete_pokemon",
      "outputs": [],
      "payable": false,
      "stateMutability": "nonpayable",
      "type": "function"
    }
  ],
  "bytecode": "0x6080604052600060115534801561001557600080fd5b50336000806101000a81548173ffffffffffffffffffffffffffffffffffffffff021916908373ffffffffffffffffffffffffffffffffffffffff160217905550610a8a806100656000396000f3fe608060405234801561001057600080fd5b50600436106100575760003560e01c80631902e5ad1461005c57806335e694e9146100aa578063a8eb16b2146100f0578063d1a47ab31461011e578063da874355146101e3575b600080fd5b6100a86004803603604081101561007257600080fd5b81019080803573ffffffffffffffffffffffffffffffffffffffff16906020019092919080359060200190929190505050610201565b005b6100b26104b5565b6040518082601060200280838360005b838110156100dd5780820151818401526020810190506100c2565b5050505090500191505060405180910390f35b61011c6004803603602081101561010657600080fd5b8101908080359060200190929190505050610536565b005b6101e16004803603604081101561013457600080fd5b810190808035906020019064010000000081111561015157600080fd5b82018360208201111561016357600080fd5b8035906020019184600183028401116401000000008311171561018557600080fd5b91908080601f016020809104026020016040519081016040528093929190818152602001838380828437600081840152601f19601f820116905080830192505050505050509192919290803590602001909291905050506106fb565b005b6101eb61093b565b6040518082815260200191505060405180910390f35b8173ffffffffffffffffffffffffffffffffffffffff166001826010811061022557fe5b0160009054906101000a900473ffffffffffffffffffffffffffffffffffffffff1673ffffffffffffffffffffffffffffffffffffffff161461026757600080fd5b6001816010811061027457fe5b0160006101000a81549073ffffffffffffffffffffffffffffffffffffffff021916905560006010905060006001905060008090505b828160ff16101561039857600073ffffffffffffffffffffffffffffffffffffffff1660018260ff16601081106102dd57fe5b0160009054906101000a900473ffffffffffffffffffffffffffffffffffffffff1673ffffffffffffffffffffffffffffffffffffffff161415801561037f57508473ffffffffffffffffffffffffffffffffffffffff1660018260ff166010811061034557fe5b0160009054906101000a900473ffffffffffffffffffffffffffffffffffffffff1673ffffffffffffffffffffffffffffffffffffffff16145b1561038d5760009150610398565b8060010190506102aa565b50801561040b57601260008573ffffffffffffffffffffffffffffffffffffffff1673ffffffffffffffffffffffffffffffffffffffff168152602001908152602001600020600080820160006103ef9190610945565b6001820160009055505060116000815460019003919050819055505b7f4d2e8a86bb71008a3b695f13ae44bbb4692648ca5fdb0a9d3f70806ddced067e848460405180806020018473ffffffffffffffffffffffffffffffffffffffff1673ffffffffffffffffffffffffffffffffffffffff1681526020018381526020018281038252600e8152602001807f64656c6574655f706f6b656d6f6e000000000000000000000000000000000000815250602001935050505060405180910390a150505050565b6104bd61098d565b600160108060200260405190810160405280929190826010801561052c576020028201915b8160009054906101000a900473ffffffffffffffffffffffffffffffffffffffff1673ffffffffffffffffffffffffffffffffffffffff16815260200190600101908083116104e2575b5050505050905090565b6000601260003373ffffffffffffffffffffffffffffffffffffffff1673ffffffffffffffffffffffffffffffffffffffff168152602001908152602001600020600101541180156105e25750600073ffffffffffffffffffffffffffffffffffffffff16600182601081106105a857fe5b0160009054906101000a900473ffffffffffffffffffffffffffffffffffffffff1673ffffffffffffffffffffffffffffffffffffffff16145b6105eb57600080fd5b33600182601081106105f957fe5b0160006101000a81548173ffffffffffffffffffffffffffffffffffffffff021916908373ffffffffffffffffffffffffffffffffffffffff160217905550601260003373ffffffffffffffffffffffffffffffffffffffff1673ffffffffffffffffffffffffffffffffffffffff16815260200190815260200160002060010160008154600101919050819055507fae26f707efae4f116afb16a3726b0c1e32a0a197720e91b4359c09a791f2fc318160405180806020018381526020018281038252600b8152602001807f6765745f706f6b656d6f6e0000000000000000000000000000000000000000008152506020019250505060405180910390a150565b6000601260003373ffffffffffffffffffffffffffffffffffffffff1673ffffffffffffffffffffffffffffffffffffffff168152602001908152602001600020600101541461074a57600080fd5b60405180604001604052808381526020016001815250601260003373ffffffffffffffffffffffffffffffffffffffff1673ffffffffffffffffffffffffffffffffffffffff16815260200190815260200160002060008201518160000190805190602001906107bb9291906109b0565b50602082015181600101559050506011600081546001019190508190555033600182601081106107e757fe5b0160006101000a81548173ffffffffffffffffffffffffffffffffffffffff021916908373ffffffffffffffffffffffffffffffffffffffff1602179055507f02312d12e09c41a8bd1fd81832cfe358f8ebc16fbcfa9b21be7a4d0903dabeec33838360405180806020018573ffffffffffffffffffffffffffffffffffffffff1673ffffffffffffffffffffffffffffffffffffffff16815260200180602001848152602001838103835260148152602001807f63726561745f706f6b656d6f6e5f6d6173746572000000000000000000000000815250602001838103825285818151815260200191508051906020019080838360005b838110156108fa5780820151818401526020810190506108df565b50505050905090810190601f1680156109275780820380516001836020036101000a031916815260200191505b509550505050505060405180910390a15050565b6000601154905090565b50805460018160011615610100020316600290046000825580601f1061096b575061098a565b601f0160209004906000526020600020908101906109899190610a30565b5b50565b604051806102000160405280601090602082028038833980820191505090505090565b828054600181600116156101000203166002900490600052602060002090601f016020900481019282601f106109f157805160ff1916838001178555610a1f565b82800160010185558215610a1f579182015b82811115610a1e578251825591602001919060010190610a03565b5b509050610a2c9190610a30565b5090565b610a5291905b80821115610a4e576000816000905550600101610a36565b5090565b9056fea265627a7a72315820e21d2578f313819c44cd7cec7c68304d6e93330d7289a2bce4f24535b193160464736f6c63430005100032",
  "source": "pragma solidity ^0.5.0;\n\ncontract Adoption {\n    // 創世神\n    address private owner;\n    // 玩家持有的 Pokemons\n    address[16] private pokemon_owner;\n    // 全部玩家數量\n    uint private players = 0;\n    // 建構子\n    constructor() public {\n        owner = msg.sender;\n    }\n    // 定義創世神才能執行\n    modifier OnlyOwner {\n        require(owner != address(0) && msg.sender == owner);\n        _;\n    }\n    // 結構 玩家\n    struct Pokemon_Master {\n        // 玩家暱稱\n        string nickname;\n        // 寶可夢數量\n        uint monsters;\n    }\n    // 玩家列表\n    mapping(address => Pokemon_Master) private pokemon_masters;\n    // 玩家持有的 Pokemons\n    function echo_players() public view returns(uint) {\n        return players;\n    }\n    // 玩家持有的 Pokemons\n    function echo_pokemon_owner() public view returns(address[16] memory) {\n        return pokemon_owner;\n    }\n    // 玩家建立帳號 會給玩家挑一隻 Pokemon\n    event log_creat_pokemon_master(string msg, address sender, string nickname, uint pokemon_id);\n    function creat_pokemon_master(string memory _name, uint _id) public {\n        require(pokemon_masters[msg.sender].monsters == 0);\n        {\n            pokemon_masters[msg.sender] = Pokemon_Master({\n                nickname: _name,\n                monsters: 1\n            });\n            ++players;\n            \n            pokemon_owner[_id] = msg.sender;\n            \n            emit log_creat_pokemon_master(\"creat_pokemon_master\", msg.sender, _name, _id);\n        }\n    }\n    // 得到 Pokemon\n    event log_get_pokemon(string msg, uint pokemon_id);\n    function get_pokemon(uint _id) public {\n        require(pokemon_masters[msg.sender].monsters > 0 && pokemon_owner[_id] == address(0));\n        {\n            pokemon_owner[_id] = msg.sender;\n            ++pokemon_masters[msg.sender].monsters;\n            \n            emit log_get_pokemon(\"get_pokemon\", _id);\n        }\n    }\n    // 放生 Pokemon\n    event log_delete_pokemon(string msg, address player, uint pokemon_id);\n    function delete_pokemon(address _player, uint _id) public {\n        require(pokemon_owner[_id] == _player);\n        {\n            delete pokemon_owner[_id];\n            \n            uint max = pokemon_owner.length;\n            bool gg = true;\n            for(uint8 i = 0; i < max; ++i)\n            {\n                if(pokemon_owner[i] != address(0) && pokemon_owner[i] == _player)\n                {\n                    gg = false;\n                    break;\n                }\n            }\n\n            if(gg)\n            {\n                delete pokemon_masters[_player];\n                --players;\n            }\n\n            emit log_delete_pokemon(\"delete_pokemon\", _player, _id);\n        }\n    }\n}",
  "sourcePath": "C:\\wamp64\\www\\eth_pet_web\\contracts\\Adoption.sol",
  "compiler": {
    "name": "solc",
    "version": "0.5.16+commit.9c3226ce.Emscripten.clang"
  },
  "schemaVersion": "3.0.23",
  "updatedAt": "2020-03-18T09:58:27.544Z",
  "networkType": "ethereum",
  "devdoc": {
    "methods": {}
  },
  "userdoc": {
    "methods": {}
  }
}