{
  "contractName": "Adoption",
  "abi": [
    {
      "anonymous": false,
      "inputs": [
        {
          "indexed": false,
          "internalType": "string",
          "name": "message",
          "type": "string"
        },
        {
          "indexed": false,
          "internalType": "uint256",
          "name": "",
          "type": "uint256"
        }
      ],
      "name": "LogPay",
      "type": "event"
    },
    {
      "constant": true,
      "inputs": [
        {
          "internalType": "uint256",
          "name": "",
          "type": "uint256"
        }
      ],
      "name": "adopters",
      "outputs": [
        {
          "internalType": "address",
          "name": "",
          "type": "address"
        }
      ],
      "payable": false,
      "stateMutability": "view",
      "type": "function"
    },
    {
      "constant": false,
      "inputs": [
        {
          "internalType": "uint256",
          "name": "petId",
          "type": "uint256"
        }
      ],
      "name": "adopt",
      "outputs": [
        {
          "internalType": "uint256",
          "name": "",
          "type": "uint256"
        }
      ],
      "payable": false,
      "stateMutability": "nonpayable",
      "type": "function"
    },
    {
      "constant": true,
      "inputs": [],
      "name": "getAdopters",
      "outputs": [
        {
          "internalType": "address[16]",
          "name": "",
          "type": "address[16]"
        }
      ],
      "payable": false,
      "stateMutability": "view",
      "type": "function"
    },
    {
      "constant": false,
      "inputs": [],
      "name": "pay",
      "outputs": [],
      "payable": true,
      "stateMutability": "payable",
      "type": "function"
    },
    {
      "constant": false,
      "inputs": [],
      "name": "withdraw",
      "outputs": [],
      "payable": false,
      "stateMutability": "nonpayable",
      "type": "function"
    }
  ],
  "bytecode": "0x608060405234801561001057600080fd5b5061043e806100206000396000f3fe60806040526004361061004a5760003560e01c80631b9265b81461004f5780633ccfd60b146100595780633de4eb171461007057806343ae80d3146100c35780638588b2c51461013e575b600080fd5b61005761018d565b005b34801561006557600080fd5b5061006e6101ff565b005b34801561007c57600080fd5b506100856102c1565b6040518082601060200280838360005b838110156100b0578082015181840152602081019050610095565b5050505090500191505060405180910390f35b3480156100cf57600080fd5b506100fc600480360360208110156100e657600080fd5b8101908080359060200190929190505050610342565b604051808273ffffffffffffffffffffffffffffffffffffffff1673ffffffffffffffffffffffffffffffffffffffff16815260200191505060405180910390f35b34801561014a57600080fd5b506101776004803603602081101561016157600080fd5b8101908080359060200190929190505050610375565b6040518082815260200191505060405180910390f35b7f8cd2c52304d6523276ff46fae36a6e20dcf64954b5eb3761705017e91a99e0b0346040518080602001838152602001828103825260058152602001807f5061793a200000000000000000000000000000000000000000000000000000008152506020019250505060405180910390a1565b7f8cd2c52304d6523276ff46fae36a6e20dcf64954b5eb3761705017e91a99e0b0600160405180806020018381526020018281038252600b8152602001807f5769647468647261773a200000000000000000000000000000000000000000008152506020019250505060405180910390a13373ffffffffffffffffffffffffffffffffffffffff166108fc670de0b6b3a76400009081150290604051600060405180830381858888f193505050501580156102be573d6000803e3d6000fd5b50565b6102c96103e6565b6000601080602002604051908101604052809291908260108015610338576020028201915b8160009054906101000a900473ffffffffffffffffffffffffffffffffffffffff1673ffffffffffffffffffffffffffffffffffffffff16815260200190600101908083116102ee575b5050505050905090565b6000816010811061034f57fe5b016000915054906101000a900473ffffffffffffffffffffffffffffffffffffffff1681565b60008082101580156103885750600f8211155b61039157600080fd5b336000836010811061039f57fe5b0160006101000a81548173ffffffffffffffffffffffffffffffffffffffff021916908373ffffffffffffffffffffffffffffffffffffffff160217905550819050919050565b60405180610200016040528060109060208202803883398082019150509050509056fea265627a7a7231582092e1817f09bb4b63ad4bb2a8378db1c7a743090c28ae3d822387af28ea24a54c64736f6c63430005100032",
  "source": "pragma solidity ^0.5.0;\n\ncontract Adoption\n{\n  address[16] public adopters;\n\n  event LogPay(string message, uint);\n\n  // Adopting a pet\n  function adopt(uint petId) public returns(uint)\n  {\n    require(petId >= 0 && petId <= 15);\n    {\n        adopters[petId] = msg.sender;\n    }\n    \n    return petId;\n  }\n\n  // Retrieving the adopters\n  function getAdopters() public view returns(address[16] memory)\n  {\n    return adopters;\n  }\n\n  function pay() public payable\n  {\n    emit LogPay(\"Pay: \", msg.value);\n  }\n\n  function withdraw() public\n  {\n    emit LogPay(\"Widthdraw: \", 1);\n    msg.sender.transfer(1 ether);\n  }\n}",
  "sourcePath": "C:\\wamp64\\www\\eth_pet_web\\contracts\\Adoption.sol",
  "compiler": {
    "name": "solc",
    "version": "0.5.16+commit.9c3226ce.Emscripten.clang"
  },
  "schemaVersion": "3.0.23",
  "updatedAt": "2020-03-13T09:25:33.903Z",
  "devdoc": {
    "methods": {}
  },
  "userdoc": {
    "methods": {}
  }
}