{
  "contractName": "PokemonFirst",
  "abi": [
    {
      "inputs": [],
      "payable": false,
      "stateMutability": "nonpayable",
      "type": "constructor"
    },
    {
      "anonymous": false,
      "inputs": [
        {
          "indexed": false,
          "internalType": "string",
          "name": "name",
          "type": "string"
        },
        {
          "indexed": false,
          "internalType": "uint256",
          "name": "pokemon",
          "type": "uint256"
        }
      ],
      "name": "log_create_Pokemon_Master",
      "type": "event"
    },
    {
      "anonymous": false,
      "inputs": [
        {
          "indexed": false,
          "internalType": "address",
          "name": "owner",
          "type": "address"
        },
        {
          "indexed": false,
          "internalType": "uint256",
          "name": "nowArray",
          "type": "uint256"
        }
      ],
      "name": "log_get_Pokemon",
      "type": "event"
    },
    {
      "anonymous": false,
      "inputs": [
        {
          "indexed": false,
          "internalType": "address",
          "name": "owner",
          "type": "address"
        },
        {
          "indexed": false,
          "internalType": "string",
          "name": "name",
          "type": "string"
        },
        {
          "indexed": false,
          "internalType": "uint256",
          "name": "id",
          "type": "uint256"
        },
        {
          "indexed": false,
          "internalType": "uint256",
          "name": "hp",
          "type": "uint256"
        },
        {
          "indexed": false,
          "internalType": "uint256",
          "name": "defense",
          "type": "uint256"
        },
        {
          "indexed": false,
          "internalType": "uint256",
          "name": "attack",
          "type": "uint256"
        }
      ],
      "name": "test",
      "type": "event"
    },
    {
      "constant": true,
      "inputs": [],
      "name": "players",
      "outputs": [
        {
          "internalType": "uint256",
          "name": "",
          "type": "uint256"
        }
      ],
      "payable": false,
      "stateMutability": "view",
      "type": "function"
    },
    {
      "constant": false,
      "inputs": [
        {
          "internalType": "string",
          "name": "_name",
          "type": "string"
        }
      ],
      "name": "create_Pokemon_Master",
      "outputs": [],
      "payable": false,
      "stateMutability": "nonpayable",
      "type": "function"
    },
    {
      "constant": false,
      "inputs": [
        {
          "internalType": "uint256",
          "name": "_id",
          "type": "uint256"
        }
      ],
      "name": "get_Pokemon",
      "outputs": [],
      "payable": false,
      "stateMutability": "nonpayable",
      "type": "function"
    },
    {
      "constant": false,
      "inputs": [],
      "name": "select_pokemon",
      "outputs": [],
      "payable": false,
      "stateMutability": "nonpayable",
      "type": "function"
    }
  ],
  "bytecode": "0x6080604052600060015534801561001557600080fd5b50336000806101000a81548173ffffffffffffffffffffffffffffffffffffffff021916908373ffffffffffffffffffffffffffffffffffffffff160217905550610a2c806100656000396000f3fe608060405234801561001057600080fd5b506004361061004c5760003560e01c80636efa025c14610051578063b31dccf81461010c578063ca6ccf001461013a578063dc0b356414610144575b600080fd5b61010a6004803603602081101561006757600080fd5b810190808035906020019064010000000081111561008457600080fd5b82018360208201111561009657600080fd5b803590602001918460018302840111640100000000831117156100b857600080fd5b91908080601f016020809104026020016040519081016040528093929190818152602001838380828437600081840152601f19601f820116905080830192505050505050509192919290505050610162565b005b6101386004803603602081101561012257600080fd5b81019080803590602001909291905050506102bb565b005b610142610574565b005b61014c610925565b6040518082815260200191505060405180910390f35b60405180604001604052808281526020016001815250600260008060009054906101000a900473ffffffffffffffffffffffffffffffffffffffff1673ffffffffffffffffffffffffffffffffffffffff1673ffffffffffffffffffffffffffffffffffffffff16815260200190815260200160002060008201518160000190805190602001906101f492919061092b565b5060208201518160010155905050600160008154600101919050819055507f2bfbe86b64f444baaaa93827905280d5d9f5007f07e1d0a486cdc47ea4651adf816001546040518080602001838152602001828103825284818151815260200191508051906020019080838360005b8381101561027d578082015181840152602081019050610262565b50505050905090810190601f1680156102aa5780820380516001836020036101000a031916815260200191505b50935050505060405180910390a150565b600073ffffffffffffffffffffffffffffffffffffffff166000809054906101000a900473ffffffffffffffffffffffffffffffffffffffff1673ffffffffffffffffffffffffffffffffffffffff161415801561036557506000809054906101000a900473ffffffffffffffffffffffffffffffffffffffff1673ffffffffffffffffffffffffffffffffffffffff163373ffffffffffffffffffffffffffffffffffffffff16145b61036e57600080fd5b6000600260008060009054906101000a900473ffffffffffffffffffffffffffffffffffffffff1673ffffffffffffffffffffffffffffffffffffffff1673ffffffffffffffffffffffffffffffffffffffff16815260200190815260200160002090506001816001015410156103e457600080fd5b60006001826001015403905081600101600081546001019190508190555060006002848161040e57fe5b06141561047e57604051806080016040528084815260200160028152602001600281526020016002815250826002016000838152602001908152602001600020600082015181600001556020820151816001015560408201518160020155606082015181600301559050506104e3565b604051806080016040528084815260200160018152602001600181526020016001815250826002016000838152602001908152602001600020600082015181600001556020820151816001015560408201518160020155606082015181600301559050505b7f12838ead54d4e02ab633d875c9ff9a30a1a143a0101de7bcd572abd36465ffce6000809054906101000a900473ffffffffffffffffffffffffffffffffffffffff1682604051808373ffffffffffffffffffffffffffffffffffffffff1673ffffffffffffffffffffffffffffffffffffffff1681526020018281526020019250505060405180910390a1505050565b600073ffffffffffffffffffffffffffffffffffffffff166000809054906101000a900473ffffffffffffffffffffffffffffffffffffffff1673ffffffffffffffffffffffffffffffffffffffff161415801561061e57506000809054906101000a900473ffffffffffffffffffffffffffffffffffffffff1673ffffffffffffffffffffffffffffffffffffffff163373ffffffffffffffffffffffffffffffffffffffff16145b61062757600080fd5b6000600260008060009054906101000a900473ffffffffffffffffffffffffffffffffffffffff1673ffffffffffffffffffffffffffffffffffffffff1673ffffffffffffffffffffffffffffffffffffffff168152602001908152602001600020905060018160010154101561069d57600080fd5b6106a56109ab565b60405180606001604052806040518060400160405280600481526020017f466972650000000000000000000000000000000000000000000000000000000081525081526020016040518060400160405280600581526020017f576174657200000000000000000000000000000000000000000000000000000081525081526020016040518060400160405280600581526020017f4772617373000000000000000000000000000000000000000000000000000000815250815250905060006001836001015403905060008090505b8181101561091f577f71867f54db3e5fa3f09b7e507ad7b311668d90a10132ebf61e7d867cf353546f6000809054906101000a900473ffffffffffffffffffffffffffffffffffffffff168486600201600085815260200190815260200160002060000154600381106107e257fe5b602002015186600201600085815260200190815260200160002060000154876002016000868152602001908152602001600020600101548860020160008781526020019081526020016000206002015489600201600088815260200190815260200160002060030154604051808773ffffffffffffffffffffffffffffffffffffffff1673ffffffffffffffffffffffffffffffffffffffff16815260200180602001868152602001858152602001848152602001838152602001828103825287818151815260200191508051906020019080838360005b838110156108d55780820151818401526020810190506108ba565b50505050905090810190601f1680156109025780820380516001836020036101000a031916815260200191505b5097505050505050505060405180910390a1806001019050610773565b50505050565b60015481565b828054600181600116156101000203166002900490600052602060002090601f016020900481019282601f1061096c57805160ff191683800117855561099a565b8280016001018555821561099a579182015b8281111561099957825182559160200191906001019061097e565b5b5090506109a791906109d2565b5090565b60405180606001604052806003905b60608152602001906001900390816109ba5790505090565b6109f491905b808211156109f05760008160009055506001016109d8565b5090565b9056fea265627a7a72315820b1eb9e8f98908778f9abb98f4a47f7a4f6ae8042550228f5823b2fd36a3e581364736f6c63430005100032",
  "source": "pragma solidity ^0.5.0;\r\n\r\ncontract PokemonFirst \r\n{\r\n    address private owner;\r\n    // 全部帳號\r\n    uint public players = 0;\r\n    // 建構子\r\n    constructor() public\r\n    {\r\n        owner = msg.sender;\r\n    }\r\n    // 定義\r\n    modifier OnlyOwner\r\n    {\r\n        require(owner != address(0) && msg.sender == owner);\r\n        _;\r\n    }\r\n    // 結構 寶可夢\r\n    struct Pokemon\r\n    {\r\n        uint id;\r\n        uint hp;\r\n        uint defense;\r\n        uint attack;\r\n    }\r\n    // 結構 玩家\r\n    struct Pokemon_Master\r\n    {\r\n        // 玩家暱稱\r\n        string name;\r\n        // 寶可夢數量\r\n        uint monsters;\r\n        // 寶可夢列表\r\n        mapping(uint => Pokemon) pokemons;\r\n    }\r\n    // 玩家列表\r\n    mapping(address => Pokemon_Master) pokemon_masters;\r\n    // 玩家建立帳號 會給玩家挑一隻\r\n    event log_create_Pokemon_Master(string name, uint pokemon);\r\n    function create_Pokemon_Master(string memory _name) public\r\n    {\r\n        pokemon_masters[owner] = Pokemon_Master(_name, 1);\r\n        \r\n        ++players;\r\n        \r\n        emit log_create_Pokemon_Master(_name, players);\r\n    }\r\n    // 得到寶可夢\r\n    event log_get_Pokemon(address owner, uint nowArray);\r\n    function get_Pokemon(uint _id) public OnlyOwner\r\n    {\r\n        Pokemon_Master storage player = pokemon_masters[owner];\r\n        \r\n        require(player.monsters >= 1);\r\n        {\r\n            uint nowArray = player.monsters - 1;\r\n            ++player.monsters;\r\n\r\n            if(_id % 2 == 0)\r\n            {\r\n                player.pokemons[nowArray] = Pokemon({\r\n                    id: _id,\r\n                    hp: 2,\r\n                    defense: 2,\r\n                    attack: 2\r\n                });\r\n            }\r\n            else\r\n            {\r\n                player.pokemons[nowArray] = Pokemon({\r\n                    id: _id,\r\n                    hp: 1,\r\n                    defense: 1,\r\n                    attack: 1\r\n                });\r\n            }\r\n        \r\n            emit log_get_Pokemon(owner, nowArray);\r\n        }\r\n    }\r\n    // 查詢玩家目前有的寶可夢\r\n    event test(address owner, string name, uint id, uint hp, uint defense, uint attack);\r\n    function select_pokemon() public OnlyOwner\r\n    {\r\n        Pokemon_Master storage player = pokemon_masters[owner];\r\n        require(player.monsters >= 1);\r\n        {\r\n            // 對照名稱\r\n            string[3] memory names = [\"Fire\", \"Water\", \"Grass\"];\r\n            \r\n            uint max = player.monsters - 1;\r\n            \r\n            for(uint i = 0; i < max; ++i)\r\n            {\r\n                emit test(owner, names[player.pokemons[i].id], player.pokemons[i].id, player.pokemons[i].hp, player.pokemons[i].defense, player.pokemons[i].attack);\r\n            }\r\n        }\r\n    }\r\n}",
  "sourcePath": "C:\\wamp64\\www\\eth_pet_web\\contracts\\PokemonFirst.sol",
  "compiler": {
    "name": "solc",
    "version": "0.5.16+commit.9c3226ce.Emscripten.clang"
  },
  "schemaVersion": "3.0.23",
  "updatedAt": "2020-03-13T09:25:33.912Z",
  "devdoc": {
    "methods": {}
  },
  "userdoc": {
    "methods": {}
  }
}